{
  "contractName": "Aurora2",
  "abi": [
    {
      "constant": true,
      "inputs": [],
      "name": "gradeCount",
      "outputs": [
        {
          "name": "",
          "type": "uint256"
        }
      ],
      "payable": false,
      "stateMutability": "view",
      "type": "function",
      "signature": "0x1862d939"
    },
    {
      "constant": true,
      "inputs": [
        {
          "name": "",
          "type": "uint256"
        }
      ],
      "name": "grades",
      "outputs": [
        {
          "name": "id",
          "type": "uint256"
        },
        {
          "name": "professor_addr",
          "type": "address"
        },
        {
          "name": "course_id",
          "type": "string"
        },
        {
          "name": "student_name",
          "type": "string"
        },
        {
          "name": "release_time",
          "type": "uint256"
        },
        {
          "name": "student_number",
          "type": "string"
        },
        {
          "name": "assignment_grade",
          "type": "uint256"
        },
        {
          "name": "project_grade",
          "type": "uint256"
        },
        {
          "name": "exam_grade",
          "type": "uint256"
        },
        {
          "name": "_final_grade",
          "type": "string"
        }
      ],
      "payable": false,
      "stateMutability": "view",
      "type": "function",
      "signature": "0x4b22fc62"
    },
    {
      "constant": true,
      "inputs": [],
      "name": "administrator",
      "outputs": [
        {
          "name": "",
          "type": "address"
        }
      ],
      "payable": false,
      "stateMutability": "view",
      "type": "function",
      "signature": "0xf53d0a8e"
    },
    {
      "inputs": [],
      "payable": false,
      "stateMutability": "nonpayable",
      "type": "constructor",
      "signature": "constructor"
    },
    {
      "anonymous": false,
      "inputs": [
        {
          "indexed": false,
          "name": "id",
          "type": "uint256"
        },
        {
          "indexed": false,
          "name": "professor_addr",
          "type": "address"
        },
        {
          "indexed": false,
          "name": "course_id",
          "type": "string"
        },
        {
          "indexed": false,
          "name": "stdent_name",
          "type": "string"
        },
        {
          "indexed": false,
          "name": "release_time",
          "type": "uint256"
        },
        {
          "indexed": false,
          "name": "student_number",
          "type": "string"
        },
        {
          "indexed": false,
          "name": "assignment_grade",
          "type": "uint256"
        },
        {
          "indexed": false,
          "name": "project_grade",
          "type": "uint256"
        },
        {
          "indexed": false,
          "name": "exam_grade",
          "type": "uint256"
        },
        {
          "indexed": false,
          "name": "_final_grade",
          "type": "string"
        }
      ],
      "name": "GradeCreated",
      "type": "event",
      "signature": "0x9aa3b4155b0bc44323c2498d173fbb32d4cc46b40fa35a64999bf0cbaf5dd391"
    },
    {
      "constant": false,
      "inputs": [
        {
          "name": "_course_id",
          "type": "string"
        },
        {
          "name": "_student_name",
          "type": "string"
        },
        {
          "name": "_student_number",
          "type": "string"
        },
        {
          "name": "_assignment_score",
          "type": "uint256"
        },
        {
          "name": "_assignment_precentage",
          "type": "uint256"
        },
        {
          "name": "_project_score",
          "type": "uint256"
        },
        {
          "name": "_project_precentage",
          "type": "uint256"
        },
        {
          "name": "_exam_score",
          "type": "uint256"
        },
        {
          "name": "_exam_precentage",
          "type": "uint256"
        }
      ],
      "name": "createGrade",
      "outputs": [],
      "payable": false,
      "stateMutability": "nonpayable",
      "type": "function",
      "signature": "0x356838e8"
    }
  ],
  "bytecode": "0x608060405260006001553480156200001657600080fd5b5060008054600160a060020a03191633179055604080518082018252600881527f636f6d703330313000000000000000000000000000000000000000000000000060208083019190915282518084018452600381527f50524f0000000000000000000000000000000000000000000000000000000000818301528351808501909452600784527f373737373737370000000000000000000000000000000000000000000000000091840191909152620000e192606460238181816028640100000000620000e7810204565b6200079c565b600054600160a060020a03163314620000ff57600080fd5b6001805481019055336064828402858702888a0201010460606032891080620001285750603287105b80620001345750603285105b1562000175575060408051808201909152600181527f4600000000000000000000000000000000000000000000000000000000000000602082015262000387565b605a8210620001b9575060408051808201909152600281527f412b000000000000000000000000000000000000000000000000000000000000602082015262000387565b60508210620001fd575060408051808201909152600181527f4100000000000000000000000000000000000000000000000000000000000000602082015262000387565b604b821062000241575060408051808201909152600281527f422b000000000000000000000000000000000000000000000000000000000000602082015262000387565b6046821062000285575060408051808201909152600181527f4200000000000000000000000000000000000000000000000000000000000000602082015262000387565b60418210620002c9575060408051808201909152600281527f432b000000000000000000000000000000000000000000000000000000000000602082015262000387565b603c82106200030d575060408051808201909152600181527f4300000000000000000000000000000000000000000000000000000000000000602082015262000387565b6032821062000351575060408051808201909152600181527f4400000000000000000000000000000000000000000000000000000000000000602082015262000387565b5060408051808201909152600181527f460000000000000000000000000000000000000000000000000000000000000060208201525b61014060405190810160405280600154815260200184600160a060020a031681526020018d81526020018c81526020014381526020018b81526020018a8152602001888152602001868152602001828152506002600060015481526020019081526020016000206000820151816000015560208201518160010160006101000a815481600160a060020a030219169083600160a060020a03160217905550604082015181600201908051906020019062000443929190620006f7565b506060820151805162000461916003840191602090910190620006f7565b506080820151600482015560a0820151805162000489916005840191602090910190620006f7565b5060c0820151600682015560e0820151600782015561010082015160088201556101208201518051620004c7916009840191602090910190620006f7565b509050507f9aa3b4155b0bc44323c2498d173fbb32d4cc46b40fa35a64999bf0cbaf5dd391600154848e8e438f8f8e8d8a604051808b81526020018a600160a060020a0316600160a060020a031681526020018060200180602001898152602001806020018881526020018781526020018681526020018060200185810385528d818151815260200191508051906020019080838360005b83811015620005795781810151838201526020016200055f565b50505050905090810190601f168015620005a75780820380516001836020036101000a031916815260200191505b5085810384528c5181528c516020918201918e019080838360005b83811015620005dc578181015183820152602001620005c2565b50505050905090810190601f1680156200060a5780820380516001836020036101000a031916815260200191505b5085810383528a5181528a516020918201918c019080838360005b838110156200063f57818101518382015260200162000625565b50505050905090810190601f1680156200066d5780820380516001836020036101000a031916815260200191505b50858103825286518152865160209182019188019080838360005b83811015620006a257818101518382015260200162000688565b50505050905090810190601f168015620006d05780820380516001836020036101000a031916815260200191505b509e50505050505050505050505050505060405180910390a1505050505050505050505050565b828054600181600116156101000203166002900490600052602060002090601f016020900481019282601f106200073a57805160ff19168380011785556200076a565b828001600101855582156200076a579182015b828111156200076a5782518255916020019190600101906200074d565b50620007789291506200077c565b5090565b6200079991905b8082111562000778576000815560010162000783565b90565b610df680620007ac6000396000f3fe6080604052600436106100615763ffffffff7c01000000000000000000000000000000000000000000000000000000006000350416631862d9398114610066578063356838e81461008d5780634b22fc621461026e578063f53d0a8e1461047e575b600080fd5b34801561007257600080fd5b5061007b6104af565b60408051918252519081900360200190f35b34801561009957600080fd5b5061026c60048036036101208110156100b157600080fd5b8101906020810181356401000000008111156100cc57600080fd5b8201836020820111156100de57600080fd5b8035906020019184600183028401116401000000008311171561010057600080fd5b91908080601f016020809104026020016040519081016040528093929190818152602001838380828437600092019190915250929594936020810193503591505064010000000081111561015357600080fd5b82018360208201111561016557600080fd5b8035906020019184600183028401116401000000008311171561018757600080fd5b91908080601f01602080910402602001604051908101604052809392919081815260200183838082843760009201919091525092959493602081019350359150506401000000008111156101da57600080fd5b8201836020820111156101ec57600080fd5b8035906020019184600183028401116401000000008311171561020e57600080fd5b91908080601f0160208091040260200160405190810160405280939291908181526020018383808284376000920191909152509295505082359350505060208101359060408101359060608101359060808101359060a001356104b5565b005b34801561027a57600080fd5b506102986004803603602081101561029157600080fd5b5035610a9e565b604051808b81526020018a600160a060020a0316600160a060020a031681526020018060200180602001898152602001806020018881526020018781526020018681526020018060200185810385528d818151815260200191508051906020019080838360005b838110156103175781810151838201526020016102ff565b50505050905090810190601f1680156103445780820380516001836020036101000a031916815260200191505b5085810384528c5181528c516020918201918e019080838360005b8381101561037757818101518382015260200161035f565b50505050905090810190601f1680156103a45780820380516001836020036101000a031916815260200191505b5085810383528a5181528a516020918201918c019080838360005b838110156103d75781810151838201526020016103bf565b50505050905090810190601f1680156104045780820380516001836020036101000a031916815260200191505b50858103825286518152865160209182019188019080838360005b8381101561043757818101518382015260200161041f565b50505050905090810190601f1680156104645780820380516001836020036101000a031916815260200191505b509e50505050505050505050505050505060405180910390f35b34801561048a57600080fd5b50610493610d20565b60408051600160a060020a039092168252519081900360200190f35b60015481565b600054600160a060020a031633146104cc57600080fd5b6001805481019055336064828402858702888a02010104606060328910806104f45750603287105b806104ff5750603285105b1561053e575060408051808201909152600181527f46000000000000000000000000000000000000000000000000000000000000006020820152610742565b605a8210610580575060408051808201909152600281527f412b0000000000000000000000000000000000000000000000000000000000006020820152610742565b605082106105c2575060408051808201909152600181527f41000000000000000000000000000000000000000000000000000000000000006020820152610742565b604b8210610604575060408051808201909152600281527f422b0000000000000000000000000000000000000000000000000000000000006020820152610742565b60468210610646575060408051808201909152600181527f42000000000000000000000000000000000000000000000000000000000000006020820152610742565b60418210610688575060408051808201909152600281527f432b0000000000000000000000000000000000000000000000000000000000006020820152610742565b603c82106106ca575060408051808201909152600181527f43000000000000000000000000000000000000000000000000000000000000006020820152610742565b6032821061070c575060408051808201909152600181527f44000000000000000000000000000000000000000000000000000000000000006020820152610742565b5060408051808201909152600181527f460000000000000000000000000000000000000000000000000000000000000060208201525b61014060405190810160405280600154815260200184600160a060020a031681526020018d81526020018c81526020014381526020018b81526020018a8152602001888152602001868152602001828152506002600060015481526020019081526020016000206000820151816000015560208201518160010160006101000a815481600160a060020a030219169083600160a060020a0316021790555060408201518160020190805190602001906107fc929190610d2f565b5060608201518051610818916003840191602090910190610d2f565b506080820151600482015560a0820151805161083e916005840191602090910190610d2f565b5060c0820151600682015560e082015160078201556101008201516008820155610120820151805161087a916009840191602090910190610d2f565b509050507f9aa3b4155b0bc44323c2498d173fbb32d4cc46b40fa35a64999bf0cbaf5dd391600154848e8e438f8f8e8d8a604051808b81526020018a600160a060020a0316600160a060020a031681526020018060200180602001898152602001806020018881526020018781526020018681526020018060200185810385528d818151815260200191508051906020019080838360005b8381101561092a578181015183820152602001610912565b50505050905090810190601f1680156109575780820380516001836020036101000a031916815260200191505b5085810384528c5181528c516020918201918e019080838360005b8381101561098a578181015183820152602001610972565b50505050905090810190601f1680156109b75780820380516001836020036101000a031916815260200191505b5085810383528a5181528a516020918201918c019080838360005b838110156109ea5781810151838201526020016109d2565b50505050905090810190601f168015610a175780820380516001836020036101000a031916815260200191505b50858103825286518152865160209182019188019080838360005b83811015610a4a578181015183820152602001610a32565b50505050905090810190601f168015610a775780820380516001836020036101000a031916815260200191505b509e50505050505050505050505050505060405180910390a1505050505050505050505050565b600260208181526000928352604092839020805460018083015483860180548851601f600019958316156101000295909501909116979097049283018690048602870186019097528186529195600160a060020a03909216949293830182828015610b4a5780601f10610b1f57610100808354040283529160200191610b4a565b820191906000526020600020905b815481529060010190602001808311610b2d57829003601f168201915b5050505060038301805460408051602060026001851615610100026000190190941693909304601f8101849004840282018401909252818152949594935090830182828015610bda5780601f10610baf57610100808354040283529160200191610bda565b820191906000526020600020905b815481529060010190602001808311610bbd57829003601f168201915b50505050600483015460058401805460408051602060026001851615610100026000190190941693909304601f81018490048402820184019092528181529596939593945090830182828015610c715780601f10610c4657610100808354040283529160200191610c71565b820191906000526020600020905b815481529060010190602001808311610c5457829003601f168201915b505050600684015460078501546008860154600987018054604080516020601f60026000196101006001881615020190951694909404938401819004810282018101909252828152989995989497509295509091830182828015610d165780601f10610ceb57610100808354040283529160200191610d16565b820191906000526020600020905b815481529060010190602001808311610cf957829003601f168201915b505050505090508a565b600054600160a060020a031681565b828054600181600116156101000203166002900490600052602060002090601f016020900481019282601f10610d7057805160ff1916838001178555610d9d565b82800160010185558215610d9d579182015b82811115610d9d578251825591602001919060010190610d82565b50610da9929150610dad565b5090565b610dc791905b80821115610da95760008155600101610db3565b9056fea165627a7a72305820c7920f6750b574df7d0ba52c82aaa61109a391ebf7d2d99ba2d72069d2728ce30029",
  "source": "pragma solidity ^0.5.0;\n\ncontract Aurora2{\n    address public  administrator;\n    uint public gradeCount = 0;\n    mapping (uint => Grade) public grades;\n\n    struct Grade{\n        uint id;\n        address professor_addr;\n        string course_id;\n        string student_name;\n        uint release_time;\n        string student_number;\n        uint assignment_grade;\n        uint project_grade;\n        uint exam_grade;\n        string _final_grade;\n    }\n\n    event GradeCreated(\n        uint id,\n        address professor_addr,\n        string course_id,\n        string stdent_name,\n        uint release_time,\n        string student_number,\n        uint assignment_grade,\n        uint project_grade,    \n        uint exam_grade,\n        string _final_grade\n    );\n    //administrator,which should be professor, or other grader\n    constructor () public {\n        administrator = msg.sender;\n        createGrade(\"comp3010\",\"PRO\",\"7777777\",100,35,100,35,100,40);\n    }\n\n    function createGrade(string memory _course_id,string memory _student_name,string memory _student_number,uint _assignment_score,uint _assignment_precentage,uint _project_score,uint _project_precentage,uint _exam_score,uint _exam_precentage) public {\n        //check if current user is administrator\n        require(administrator == msg.sender);\n        //increase id\n        gradeCount++;\n        address _professor_addr = msg.sender;\n        uint _final_score = (_assignment_score * _assignment_precentage + _project_score * _project_precentage + _exam_score * _exam_precentage) / 100;\n        string memory _final_grade;\n        if( _assignment_score < 50 || _project_score < 50 || _exam_score < 50 ){\n            _final_grade = \"F\";\n        }else if(_final_score >= 90){\n            _final_grade = \"A+\";\n        }else if(_final_score >= 80){\n            _final_grade = \"A\";\n        }else if(_final_score >= 75){\n            _final_grade = \"B+\";\n        }else if(_final_score >= 70){\n            _final_grade = \"B\";\n        }else if(_final_score >= 65){\n            _final_grade = \"C+\";\n        }else if(_final_score >= 60){\n            _final_grade = \"C\";\n        }else if(_final_score >= 50){\n            _final_grade = \"D\";\n        }else{\n            _final_grade = \"F\";\n        }\n        grades[gradeCount] = Grade(gradeCount,_professor_addr,_course_id,_student_name,block.number,_student_number,_assignment_score,_project_score,_exam_score,_final_grade);\n        //trigger an event\n        emit GradeCreated(gradeCount,_professor_addr,_course_id,_student_name, block.number,_student_number, _assignment_score, _project_score,_exam_score,_final_grade);\n\n    }\n\n}\n",
  "sourcePath": "/Users/xuyang/Google 云端硬盘/COMP3010/term project/grade_dapp/contracts/Aurora2.sol",
  "compiler": {
    "name": "solc",
    "version": "0.5.0+commit.1d4f565a.Emscripten.clang"
  },
  "schemaVersion": "3.0.1",
  "updatedAt": "2020-08-14T12:36:11.155Z",
  "devdoc": {
    "methods": {}
  },
  "userdoc": {
    "methods": {}
  }
}