{
  "contractName": "Aurora2",
  "abi": [
    {
      "constant": true,
      "inputs": [],
      "name": "gradeCount",
      "outputs": [
        {
          "name": "",
          "type": "uint256"
        }
      ],
      "payable": false,
      "stateMutability": "view",
      "type": "function",
      "signature": "0x1862d939"
    },
    {
      "constant": true,
      "inputs": [
        {
          "name": "",
          "type": "uint256"
        }
      ],
      "name": "grades",
      "outputs": [
        {
          "name": "id",
          "type": "uint256"
        },
        {
          "name": "professor_addr",
          "type": "address"
        },
        {
          "name": "course_id",
          "type": "string"
        },
        {
          "name": "student_name",
          "type": "string"
        },
        {
          "name": "release_time",
          "type": "uint256"
        },
        {
          "name": "student_number",
          "type": "string"
        },
        {
          "name": "assignment_score",
          "type": "uint256"
        },
        {
          "name": "project_score",
          "type": "uint256"
        },
        {
          "name": "exam_score",
          "type": "uint256"
        },
        {
          "name": "_final_grade",
          "type": "string"
        }
      ],
      "payable": false,
      "stateMutability": "view",
      "type": "function",
      "signature": "0x4b22fc62"
    },
    {
      "constant": true,
      "inputs": [],
      "name": "administrator",
      "outputs": [
        {
          "name": "",
          "type": "address"
        }
      ],
      "payable": false,
      "stateMutability": "view",
      "type": "function",
      "signature": "0xf53d0a8e"
    },
    {
      "inputs": [],
      "payable": false,
      "stateMutability": "nonpayable",
      "type": "constructor",
      "signature": "constructor"
    },
    {
      "anonymous": false,
      "inputs": [
        {
          "indexed": false,
          "name": "id",
          "type": "uint256"
        },
        {
          "indexed": false,
          "name": "professor_addr",
          "type": "address"
        },
        {
          "indexed": false,
          "name": "course_id",
          "type": "string"
        },
        {
          "indexed": false,
          "name": "stdent_name",
          "type": "string"
        },
        {
          "indexed": false,
          "name": "release_time",
          "type": "uint256"
        },
        {
          "indexed": false,
          "name": "student_number",
          "type": "string"
        },
        {
          "indexed": false,
          "name": "assignment_score",
          "type": "uint256"
        },
        {
          "indexed": false,
          "name": "project_score",
          "type": "uint256"
        },
        {
          "indexed": false,
          "name": "exam_score",
          "type": "uint256"
        },
        {
          "indexed": false,
          "name": "_final_grade",
          "type": "string"
        }
      ],
      "name": "GradeCreated",
      "type": "event",
      "signature": "0x9aa3b4155b0bc44323c2498d173fbb32d4cc46b40fa35a64999bf0cbaf5dd391"
    },
    {
      "constant": false,
      "inputs": [
        {
          "name": "_course_id",
          "type": "string"
        },
        {
          "name": "_student_name",
          "type": "string"
        },
        {
          "name": "_student_number",
          "type": "string"
        },
        {
          "name": "_assignment_score",
          "type": "uint256"
        },
        {
          "name": "_project_score",
          "type": "uint256"
        },
        {
          "name": "_exam_score",
          "type": "uint256"
        }
      ],
      "name": "createGrade",
      "outputs": [],
      "payable": false,
      "stateMutability": "nonpayable",
      "type": "function",
      "signature": "0x4f526ee1"
    }
  ],
  "bytecode": "0x608060405260006001553480156200001657600080fd5b5060008054600160a060020a03191633179055604080518082018252600881527f636f6d703330313000000000000000000000000000000000000000000000000060208083019190915282518084018452600381527f50524f0000000000000000000000000000000000000000000000000000000000818301528351808501909452600784527f373737373737370000000000000000000000000000000000000000000000000091840191909152620000dc9260648080640100000000620000e2810204565b6200073d565b600054600160a060020a03163314620000fa57600080fd5b60018054810190553360056002850204600484040160146007840204016060605a82106200015d575060408051808201909152600281527f412b00000000000000000000000000000000000000000000000000000000000060208201526200032b565b60508210620001a1575060408051808201909152600181527f410000000000000000000000000000000000000000000000000000000000000060208201526200032b565b604b8210620001e5575060408051808201909152600281527f422b00000000000000000000000000000000000000000000000000000000000060208201526200032b565b6046821062000229575060408051808201909152600181527f420000000000000000000000000000000000000000000000000000000000000060208201526200032b565b604182106200026d575060408051808201909152600281527f432b00000000000000000000000000000000000000000000000000000000000060208201526200032b565b603c8210620002b1575060408051808201909152600181527f430000000000000000000000000000000000000000000000000000000000000060208201526200032b565b60328210620002f5575060408051808201909152600181527f440000000000000000000000000000000000000000000000000000000000000060208201526200032b565b5060408051808201909152600181527f460000000000000000000000000000000000000000000000000000000000000060208201525b61014060405190810160405280600154815260200184600160a060020a031681526020018a8152602001898152602001438152602001888152602001878152602001868152602001858152602001828152506002600060015481526020019081526020016000206000820151816000015560208201518160010160006101000a815481600160a060020a030219169083600160a060020a031602179055506040820151816002019080519060200190620003e792919062000698565b50606082015180516200040591600384019160209091019062000698565b506080820151600482015560a082015180516200042d91600584019160209091019062000698565b5060c0820151600682015560e08201516007820155610100820151600882015561012082015180516200046b91600984019160209091019062000698565b509050507f9aa3b4155b0bc44323c2498d173fbb32d4cc46b40fa35a64999bf0cbaf5dd391600154848b8b438c8c8c8c8a604051808b81526020018a600160a060020a0316600160a060020a031681526020018060200180602001898152602001806020018881526020018781526020018681526020018060200185810385528d818151815260200191508051906020019080838360005b838110156200051d57818101518382015260200162000503565b50505050905090810190601f1680156200054b5780820380516001836020036101000a031916815260200191505b5085810384528c5181528c516020918201918e019080838360005b838110156200058057818101518382015260200162000566565b50505050905090810190601f168015620005ae5780820380516001836020036101000a031916815260200191505b5085810383528a5181528a516020918201918c019080838360005b83811015620005e3578181015183820152602001620005c9565b50505050905090810190601f168015620006115780820380516001836020036101000a031916815260200191505b50858103825286518152865160209182019188019080838360005b83811015620006465781810151838201526020016200062c565b50505050905090810190601f168015620006745780820380516001836020036101000a031916815260200191505b509e50505050505050505050505050505060405180910390a1505050505050505050565b828054600181600116156101000203166002900490600052602060002090601f016020900481019282601f10620006db57805160ff19168380011785556200070b565b828001600101855582156200070b579182015b828111156200070b578251825591602001919060010190620006ee565b50620007199291506200071d565b5090565b6200073a91905b8082111562000719576000815560010162000724565b90565b610d8d806200074d6000396000f3fe6080604052600436106100615763ffffffff7c01000000000000000000000000000000000000000000000000000000006000350416631862d93981146100665780634b22fc621461008d5780634f526ee11461029d578063f53d0a8e1461046b575b600080fd5b34801561007257600080fd5b5061007b61049c565b60408051918252519081900360200190f35b34801561009957600080fd5b506100b7600480360360208110156100b057600080fd5b50356104a2565b604051808b81526020018a600160a060020a0316600160a060020a031681526020018060200180602001898152602001806020018881526020018781526020018681526020018060200185810385528d818151815260200191508051906020019080838360005b8381101561013657818101518382015260200161011e565b50505050905090810190601f1680156101635780820380516001836020036101000a031916815260200191505b5085810384528c5181528c516020918201918e019080838360005b8381101561019657818101518382015260200161017e565b50505050905090810190601f1680156101c35780820380516001836020036101000a031916815260200191505b5085810383528a5181528a516020918201918c019080838360005b838110156101f65781810151838201526020016101de565b50505050905090810190601f1680156102235780820380516001836020036101000a031916815260200191505b50858103825286518152865160209182019188019080838360005b8381101561025657818101518382015260200161023e565b50505050905090810190601f1680156102835780820380516001836020036101000a031916815260200191505b509e50505050505050505050505050505060405180910390f35b3480156102a957600080fd5b50610469600480360360c08110156102c057600080fd5b8101906020810181356401000000008111156102db57600080fd5b8201836020820111156102ed57600080fd5b8035906020019184600183028401116401000000008311171561030f57600080fd5b91908080601f016020809104026020016040519081016040528093929190818152602001838380828437600092019190915250929594936020810193503591505064010000000081111561036257600080fd5b82018360208201111561037457600080fd5b8035906020019184600183028401116401000000008311171561039657600080fd5b91908080601f01602080910402602001604051908101604052809392919081815260200183838082843760009201919091525092959493602081019350359150506401000000008111156103e957600080fd5b8201836020820111156103fb57600080fd5b8035906020019184600183028401116401000000008311171561041d57600080fd5b91908080601f0160208091040260200160405190810160405280939291908181526020018383808284376000920191909152509295505082359350505060208101359060400135610724565b005b34801561047757600080fd5b50610480610cb7565b60408051600160a060020a039092168252519081900360200190f35b60015481565b600260208181526000928352604092839020805460018083015483860180548851601f600019958316156101000295909501909116979097049283018690048602870186019097528186529195600160a060020a0390921694929383018282801561054e5780601f106105235761010080835404028352916020019161054e565b820191906000526020600020905b81548152906001019060200180831161053157829003601f168201915b5050505060038301805460408051602060026001851615610100026000190190941693909304601f81018490048402820184019092528181529495949350908301828280156105de5780601f106105b3576101008083540402835291602001916105de565b820191906000526020600020905b8154815290600101906020018083116105c157829003601f168201915b50505050600483015460058401805460408051602060026001851615610100026000190190941693909304601f810184900484028201840190925281815295969395939450908301828280156106755780601f1061064a57610100808354040283529160200191610675565b820191906000526020600020905b81548152906001019060200180831161065857829003601f168201915b505050600684015460078501546008860154600987018054604080516020601f6002600019610100600188161502019095169490940493840181900481028201810190925282815298999598949750929550909183018282801561071a5780601f106106ef5761010080835404028352916020019161071a565b820191906000526020600020905b8154815290600101906020018083116106fd57829003601f168201915b505050505090508a565b600054600160a060020a0316331461073b57600080fd5b60018054810190553360056002850204600484040160146007840204016060605a821061079c575060408051808201909152600281527f412b000000000000000000000000000000000000000000000000000000000000602082015261095e565b605082106107de575060408051808201909152600181527f4100000000000000000000000000000000000000000000000000000000000000602082015261095e565b604b8210610820575060408051808201909152600281527f422b000000000000000000000000000000000000000000000000000000000000602082015261095e565b60468210610862575060408051808201909152600181527f4200000000000000000000000000000000000000000000000000000000000000602082015261095e565b604182106108a4575060408051808201909152600281527f432b000000000000000000000000000000000000000000000000000000000000602082015261095e565b603c82106108e6575060408051808201909152600181527f4300000000000000000000000000000000000000000000000000000000000000602082015261095e565b60328210610928575060408051808201909152600181527f4400000000000000000000000000000000000000000000000000000000000000602082015261095e565b5060408051808201909152600181527f460000000000000000000000000000000000000000000000000000000000000060208201525b61014060405190810160405280600154815260200184600160a060020a031681526020018a8152602001898152602001438152602001888152602001878152602001868152602001858152602001828152506002600060015481526020019081526020016000206000820151816000015560208201518160010160006101000a815481600160a060020a030219169083600160a060020a031602179055506040820151816002019080519060200190610a18929190610cc6565b5060608201518051610a34916003840191602090910190610cc6565b506080820151600482015560a08201518051610a5a916005840191602090910190610cc6565b5060c0820151600682015560e0820151600782015561010082015160088201556101208201518051610a96916009840191602090910190610cc6565b509050507f9aa3b4155b0bc44323c2498d173fbb32d4cc46b40fa35a64999bf0cbaf5dd391600154848b8b438c8c8c8c8a604051808b81526020018a600160a060020a0316600160a060020a031681526020018060200180602001898152602001806020018881526020018781526020018681526020018060200185810385528d818151815260200191508051906020019080838360005b83811015610b46578181015183820152602001610b2e565b50505050905090810190601f168015610b735780820380516001836020036101000a031916815260200191505b5085810384528c5181528c516020918201918e019080838360005b83811015610ba6578181015183820152602001610b8e565b50505050905090810190601f168015610bd35780820380516001836020036101000a031916815260200191505b5085810383528a5181528a516020918201918c019080838360005b83811015610c06578181015183820152602001610bee565b50505050905090810190601f168015610c335780820380516001836020036101000a031916815260200191505b50858103825286518152865160209182019188019080838360005b83811015610c66578181015183820152602001610c4e565b50505050905090810190601f168015610c935780820380516001836020036101000a031916815260200191505b509e50505050505050505050505050505060405180910390a1505050505050505050565b600054600160a060020a031681565b828054600181600116156101000203166002900490600052602060002090601f016020900481019282601f10610d0757805160ff1916838001178555610d34565b82800160010185558215610d34579182015b82811115610d34578251825591602001919060010190610d19565b50610d40929150610d44565b5090565b610d5e91905b80821115610d405760008155600101610d4a565b9056fea165627a7a7230582022a3d34e5b506d3f8752a1134cedefef5d2c72a926622cee6962872d4edf9fba0029",
  "source": "pragma solidity ^0.5.0;\n\ncontract Aurora2{\n    address public  administrator;\n    uint public gradeCount = 0;\n    mapping (uint => Grade) public grades;\n\n    struct Grade{\n        uint id;\n        address professor_addr;\n        string course_id;\n        string student_name;\n        uint release_time;\n        string student_number;\n        uint assignment_score;\n        uint project_score;\n        uint exam_score;\n        string _final_grade;\n    }\n\n    event GradeCreated(\n        uint id,\n        address professor_addr,\n        string course_id,\n        string stdent_name,\n        uint release_time,\n        string student_number,\n        uint assignment_score,\n        uint project_score,\n        uint exam_score,\n        string _final_grade\n    );\n    //administrator,which should be professor, or other grader\n    constructor () public {\n        administrator = msg.sender;\n        createGrade(\"comp3010\",\"PRO\",\"7777777\",100,100,100);\n    }\n\n    function createGrade(string memory _course_id,string memory _student_name,string memory _student_number,uint _assignment_score,uint _project_score,uint _exam_score) public {\n        //check if current user is administrator\n        require(administrator == msg.sender);\n        //increase id\n        gradeCount++;\n        address _professor_addr = msg.sender;\n\n        uint _final_score = _assignment_score * 2/5 + _project_score * 1/4 + _exam_score * 7/20;\n        string memory _final_grade;\n        if(_final_score >= 90){\n            _final_grade = \"A+\";\n        }else if(_final_score >= 80){\n            _final_grade = \"A\";\n        }else if(_final_score >= 75){\n            _final_grade = \"B+\";\n        }else if(_final_score >= 70){\n            _final_grade = \"B\";\n        }else if(_final_score >= 65){\n            _final_grade = \"C+\";\n        }else if(_final_score >= 60){\n            _final_grade = \"C\";\n        }else if(_final_score >= 50){\n            _final_grade = \"D\";\n        }else{\n            _final_grade = \"F\";\n        }\n        grades[gradeCount] = Grade(gradeCount,_professor_addr,_course_id,_student_name,block.number,_student_number,_assignment_score,_project_score,_exam_score,_final_grade);\n        //trigger an event\n        emit GradeCreated(gradeCount,_professor_addr,_course_id,_student_name, block.number,_student_number, _assignment_score, _project_score,_exam_score,_final_grade);\n\n    }\n\n}\n",
  "sourcePath": "/Users/xuyang/Google 云端硬盘/COMP3010/term project/grade_dapp/contracts/Aurora2.sol",
  "compiler": {
    "name": "solc",
    "version": "0.5.0+commit.1d4f565a.Emscripten.clang"
  },
  "schemaVersion": "3.0.1",
  "updatedAt": "2020-08-08T09:18:03.907Z",
  "devdoc": {
    "methods": {}
  },
  "userdoc": {
    "methods": {}
  }
}