{
  "contractName": "Grade",
  "abi": [
    {
      "constant": true,
      "inputs": [
        {
          "name": "",
          "type": "uint256"
        }
      ],
      "name": "students",
      "outputs": [
        {
          "name": "id",
          "type": "uint256"
        },
        {
          "name": "professor_addr",
          "type": "address"
        },
        {
          "name": "student_name",
          "type": "string"
        },
        {
          "name": "release_time",
          "type": "uint256"
        },
        {
          "name": "student_number",
          "type": "string"
        },
        {
          "name": "assignment_score",
          "type": "uint256"
        },
        {
          "name": "project_score",
          "type": "uint256"
        },
        {
          "name": "exam_score",
          "type": "uint256"
        },
        {
          "name": "final_grade",
          "type": "string"
        }
      ],
      "payable": false,
      "stateMutability": "view",
      "type": "function",
      "signature": "0x06ead22e"
    },
    {
      "constant": true,
      "inputs": [],
      "name": "studentCount",
      "outputs": [
        {
          "name": "",
          "type": "uint256"
        }
      ],
      "payable": false,
      "stateMutability": "view",
      "type": "function",
      "signature": "0xe581f9ee"
    },
    {
      "constant": true,
      "inputs": [],
      "name": "administrator",
      "outputs": [
        {
          "name": "",
          "type": "address"
        }
      ],
      "payable": false,
      "stateMutability": "view",
      "type": "function",
      "signature": "0xf53d0a8e"
    },
    {
      "inputs": [],
      "payable": false,
      "stateMutability": "nonpayable",
      "type": "constructor",
      "signature": "constructor"
    },
    {
      "anonymous": false,
      "inputs": [
        {
          "indexed": false,
          "name": "id",
          "type": "uint256"
        },
        {
          "indexed": false,
          "name": "professor_addr",
          "type": "address"
        },
        {
          "indexed": false,
          "name": "stdent_name",
          "type": "string"
        },
        {
          "indexed": false,
          "name": "release_time",
          "type": "uint256"
        },
        {
          "indexed": false,
          "name": "student_number",
          "type": "string"
        },
        {
          "indexed": false,
          "name": "assignment_score",
          "type": "uint256"
        },
        {
          "indexed": false,
          "name": "project_score",
          "type": "uint256"
        },
        {
          "indexed": false,
          "name": "exam_score",
          "type": "uint256"
        },
        {
          "indexed": false,
          "name": "final_grade",
          "type": "string"
        }
      ],
      "name": "StudentCreated",
      "type": "event",
      "signature": "0xe09bcb353a9609bea095eb4ab30dcbf20f36176a55e513016add96b7bad0cb31"
    },
    {
      "constant": false,
      "inputs": [
        {
          "name": "student_name",
          "type": "string"
        },
        {
          "name": "student_number",
          "type": "string"
        },
        {
          "name": "assignment_score",
          "type": "uint256"
        },
        {
          "name": "project_score",
          "type": "uint256"
        },
        {
          "name": "exam_score",
          "type": "uint256"
        }
      ],
      "name": "createStudent",
      "outputs": [],
      "payable": false,
      "stateMutability": "nonpayable",
      "type": "function",
      "signature": "0x62cef8d3"
    }
  ],
  "bytecode": "0x6080604052600060015534801561001557600080fd5b5060008054600160a060020a03191633179055610b8c806100376000396000f3fe6080604052600436106100615763ffffffff7c010000000000000000000000000000000000000000000000000000000060003504166306ead22e811461006657806362cef8d314610210578063e581f9ee14610357578063f53d0a8e1461037e575b600080fd5b34801561007257600080fd5b506100906004803603602081101561008957600080fd5b50356103af565b604051808a815260200189600160a060020a0316600160a060020a0316815260200180602001888152602001806020018781526020018681526020018581526020018060200184810384528b818151815260200191508051906020019080838360005b8381101561010b5781810151838201526020016100f3565b50505050905090810190601f1680156101385780820380516001836020036101000a031916815260200191505b5084810383528951815289516020918201918b019080838360005b8381101561016b578181015183820152602001610153565b50505050905090810190601f1680156101985780820380516001836020036101000a031916815260200191505b50848103825285518152855160209182019187019080838360005b838110156101cb5781810151838201526020016101b3565b50505050905090810190601f1680156101f85780820380516001836020036101000a031916815260200191505b509c5050505050505050505050505060405180910390f35b34801561021c57600080fd5b50610355600480360360a081101561023357600080fd5b81019060208101813564010000000081111561024e57600080fd5b82018360208201111561026057600080fd5b8035906020019184600183028401116401000000008311171561028257600080fd5b91908080601f01602080910402602001604051908101604052809392919081815260200183838082843760009201919091525092959493602081019350359150506401000000008111156102d557600080fd5b8201836020820111156102e757600080fd5b8035906020019184600183028401116401000000008311171561030957600080fd5b91908080601f01602080910402602001604051908101604052809392919081815260200183838082843760009201919091525092955050823593505050602081013590604001356105a1565b005b34801561036357600080fd5b5061036c610ab0565b60408051918252519081900360200190f35b34801561038a57600080fd5b50610393610ab6565b60408051600160a060020a039092168252519081900360200190f35b600260208181526000928352604092839020805460018083015483860180548851601f600019958316156101000295909501909116979097049283018690048602870186019097528186529195600160a060020a0390921694929383018282801561045b5780601f106104305761010080835404028352916020019161045b565b820191906000526020600020905b81548152906001019060200180831161043e57829003601f168201915b50505050600383015460048401805460408051602060026001851615610100026000190190941693909304601f810184900484028201840190925281815295969395939450908301828280156104f25780601f106104c7576101008083540402835291602001916104f2565b820191906000526020600020905b8154815290600101906020018083116104d557829003601f168201915b505050600584015460068501546007860154600887018054604080516020601f600260001961010060018816150201909516949094049384018190048102820181019092528281529899959894975092955090918301828280156105975780601f1061056c57610100808354040283529160200191610597565b820191906000526020600020905b81548152906001019060200180831161057a57829003601f168201915b5050505050905089565b600054600160a060020a031633146105b857600080fd5b60018054810190553360056002850204600484040160146007840204016060605a82111561061a575060408051808201909152600281527f412b00000000000000000000000000000000000000000000000000000000000060208201526107e2565b605082111561065d575060408051808201909152600181527f410000000000000000000000000000000000000000000000000000000000000060208201526107e2565b604b8211156106a0575060408051808201909152600281527f422b00000000000000000000000000000000000000000000000000000000000060208201526107e2565b60468211156106e3575060408051808201909152600181527f420000000000000000000000000000000000000000000000000000000000000060208201526107e2565b6041821115610726575060408051808201909152600281527f432b00000000000000000000000000000000000000000000000000000000000060208201526107e2565b603c821115610769575060408051808201909152600181527f430000000000000000000000000000000000000000000000000000000000000060208201526107e2565b60328211156107ac575060408051808201909152600181527f440000000000000000000000000000000000000000000000000000000000000060208201526107e2565b5060408051808201909152600181527f460000000000000000000000000000000000000000000000000000000000000060208201525b61012060405190810160405280600154815260200184600160a060020a03168152602001898152602001438152602001888152602001878152602001868152602001858152602001828152506002600060015481526020019081526020016000206000820151816000015560208201518160010160006101000a815481600160a060020a030219169083600160a060020a031602179055506040820151816002019080519060200190610896929190610ac5565b5060608201516003820155608082015180516108bc916004840191602090910190610ac5565b5060a0820151600582015560c0820151600682015560e0820151600782015561010082015180516108f7916008840191602090910190610ac5565b509050507fe09bcb353a9609bea095eb4ab30dcbf20f36176a55e513016add96b7bad0cb31600154848a438b8b8b8b89604051808a815260200189600160a060020a0316600160a060020a0316815260200180602001888152602001806020018781526020018681526020018581526020018060200184810384528b818151815260200191508051906020019080838360005b838110156109a257818101518382015260200161098a565b50505050905090810190601f1680156109cf5780820380516001836020036101000a031916815260200191505b5084810383528951815289516020918201918b019080838360005b83811015610a025781810151838201526020016109ea565b50505050905090810190601f168015610a2f5780820380516001836020036101000a031916815260200191505b50848103825285518152855160209182019187019080838360005b83811015610a62578181015183820152602001610a4a565b50505050905090810190601f168015610a8f5780820380516001836020036101000a031916815260200191505b509c5050505050505050505050505060405180910390a15050505050505050565b60015481565b600054600160a060020a031681565b828054600181600116156101000203166002900490600052602060002090601f016020900481019282601f10610b0657805160ff1916838001178555610b33565b82800160010185558215610b33579182015b82811115610b33578251825591602001919060010190610b18565b50610b3f929150610b43565b5090565b610b5d91905b80821115610b3f5760008155600101610b49565b9056fea165627a7a723058204bf2034194ad7c2857d86e58d93c6398c01acd856ba021236a495ffb64d7a7a40029",
  "source": "pragma solidity ^0.5.0;\n\ncontract Grade{\n    address public administrator;\n    uint public studentCount = 0;\n    mapping (uint => Student) public students;\n\n    struct Student {\n        uint id;\n        address professor_addr;\n        string student_name;\n        uint release_time;\n        string student_number;\n        uint assignment_score;\n        uint project_score;\n        uint exam_score;\n        string final_grade;\n    }\n\n    event StudentCreated(\n        uint id,\n        address professor_addr,\n        string stdent_name,\n        uint release_time,\n        string student_number,\n        uint assignment_score,\n        uint project_score,\n        uint exam_score,\n        string final_grade\n    );\n    //administrator,which should be professor, or other grader\n    constructor () public {\n        administrator = msg.sender;\n    }\n\n    function createStudent(string memory student_name,string memory student_number,uint assignment_score,uint project_score,uint exam_score) public {\n        //check if current user is administrator\n        require(administrator == msg.sender);\n        //increase id \n        studentCount++;\n        address _professor_addr = msg.sender;\n        \n        uint final_score = assignment_score * 2/5 + project_score * 1/4 + exam_score * 7/20;\n        string memory final_grade;\n        if(final_score > 90){\n            final_grade = \"A+\";\n        }else if(final_score > 80){\n            final_grade = \"A\";\n        }else if(final_score > 75){\n            final_grade = \"B+\";\n        }else if(final_score > 70){\n            final_grade = \"B\";\n        }else if(final_score > 65){\n            final_grade = \"C+\";\n        }else if(final_score > 60){\n            final_grade = \"C\";\n        }else if(final_score > 50){\n            final_grade = \"D\";\n        }else{\n            final_grade = \"F\";\n        }\n        students[studentCount] = Student(studentCount,_professor_addr,student_name,block.number,student_number,assignment_score,project_score,exam_score,final_grade);\n        //trigger an event\n        emit StudentCreated(studentCount,_professor_addr,student_name, block.number,student_number, assignment_score, project_score,exam_score,final_grade);\n\n    }\n\n}",
  "sourcePath": "/Users/xuyang/Google 云端硬盘/COMP3010/term project/grade_dapp的副本/contracts/Grade.sol",
  "compiler": {
    "name": "solc",
    "version": "0.5.0+commit.1d4f565a.Emscripten.clang"
  },
  "schemaVersion": "3.0.1",
  "updatedAt": "2020-08-08T05:30:17.359Z",
  "devdoc": {
    "methods": {}
  },
  "userdoc": {
    "methods": {}
  }
}